S01000004170705F6D61696E2E73726563EF
S11300000C942A000C9447000C9447000C9447006D
S11300100C9447000C9447000C9447000C94470040
S11300200C9447000C9405010C9447000C943E0179
S11300300C9447000C9447000C9447000C94470020
S11300400C9447000C9447000C9447000C94470010
S11300500C94470011241FBECFE5D8E0DEBFCDBF0E
S113006010E0A0E6B0E0EAE7F4E002C005900D92EB
S1130070A436B107D9F720E0A4E6B0E001C01D9290
S1130080AD36B207E1F70E9482000C943B020C9457
S113009000001FBC1EBC8EB585608EBD89B7846010
S11300A089BF87EF92EC9DBD8CBD08958BBBA99A47
S11300B085E08A95F1F70000A99885ED8A95F1F716
S11300C000000895A89A0E9456000895A8980E94D6
S11300D056000895CF93DF93EC012196FC018081B3
S11300E0882329F00E94620089918111FBCFDF915E
S11300F0CF91089583B7856083BF89B7816089BF35
S113010012BE0895CF93DF9300D000D0CDB7DEB7F1
S11301100E9449000E947A0078941FEF1ABB84B3AE
S1130120876084BBA89888E30E94560086E00E94FA
S113013056008CE00E94560081E00E9456008FE336
S11301409FE10197F1F700C0000011BA12BB0F2E16
S1130150FCE38F2E912CF02D8FE99FE00197F1F7AE
S113016000C000008091600090916100B4010E9481
S1130170DE01A62EB72EC82ED92EE62EF72E082F76
S1130180192F80E80E9466009AE0E916F10424F42D
S113019082E690E00E946A004AE0BE016F5F7F4FF2
S11301A08A2D9B2D0E9406020E946A0083E80E9409
S11301B066000A30110524F482E690E00E946A0089
S11301C04AE0BE016F5F7F4F8C2D9D2D0E94060279
S11301D00E946A0082E80E94660080916900909102
S11301E06A00892B71F080916B0090916C00892BCF
S11301F021F080E20E946200AFCF8AE30E94620095
S1130200ABCF8AE30E946200A7CF1F920F920FB672
S11302100F9211242F933F938F939F9381E090E04B
S113022020916B0030916C00232B11F080E090E062
S113023090936C0080936B008091690090916A00A8
S1130240892B79F08091600090916100181619064D
S113025044F401979093610080936000892B09F422
S1130260AA9A87EF92EC9DBD8CBD9F918F913F918F
S11302702F910F900FBE0F901F9018951F920F9201
S11302800FB60F9211242F933F934F935F936F9365
S11302907F938F939F93AF93BF93809167009091C7
S11302A068000196909368008093670080916700CE
S11302B0909168000E9708F472C010926800109232
S11302C0670080B385FB882780F98093660080B33C
S11302D086FB882780F98093650080B382958170BE
S11302E0809364008091640081111DC08091690035
S11302F090916A0021E030E0009711F020E030E0B6
S113030030936A0020936900892B69F0AA98809140
S1130310600090916100892B31F48FE09EE090930E
S11303206100809360008091690090916A00892B3C
S1130330B1F580916000909161006CE370E00E94DF
S1130340DE019B0140916600411113C02F5F3F4FB6
S11303502C33310514F020E030E06CE3629FA001FF
S1130360639F500D1124480F591F5093610040930F
S1130370600040916500411112C001968C339105D3
S113038014F080E090E06CE3629FA001639F500D45
S11303901124840F951F9093610080936000BF9196
S11303A0AF919F918F917F916F915F914F913F9109
S11303B02F910F900FBE0F901F90189597FB072E4B
S11303C016F4009407D077FD09D00E94F20107FCCF
S11303D005D03EF4909581959F4F08957095619551
S11303E07F4F0895AA1BBB1B51E107C0AA1FBB1F67
S11303F0A617B70710F0A61BB70B881F991F5A95AD
S1130400A9F780959095BC01CD010895BB274A308A
S113041031F4992322F4BDE2909581959F4F0C9479
S11304201202BB27FB015527AA27880F991FAA1F71
S1130430A41710F0A41B83955051B9F7A05DAA33FB
S113044008F0A95DA193009779F7B111B1931192C6
S1130450CB010C942B02DC01FC01672F71917723F3
S1130460E1F7329704C07C916D9370836291AE176B
S10D0470BF07C8F30895F894FFCF06
S107047A0F0E30002D
S9030000FC
